{
  "contractName": "CrowdSale",
  "abi": [
    {
      "inputs": [
        {
          "internalType": "contract TrayToken",
          "name": "_tokenContract",
          "type": "address"
        },
        {
          "internalType": "uint256",
          "name": "_tokenPrice",
          "type": "uint256"
        }
      ],
      "payable": false,
      "stateMutability": "nonpayable",
      "type": "constructor"
    },
    {
      "anonymous": false,
      "inputs": [
        {
          "indexed": true,
          "internalType": "address",
          "name": "_buyer",
          "type": "address"
        },
        {
          "indexed": false,
          "internalType": "uint256",
          "name": "_amount",
          "type": "uint256"
        }
      ],
      "name": "Sell",
      "type": "event"
    },
    {
      "constant": true,
      "inputs": [],
      "name": "tokenContract",
      "outputs": [
        {
          "internalType": "contract TrayToken",
          "name": "",
          "type": "address"
        }
      ],
      "payable": false,
      "stateMutability": "view",
      "type": "function"
    },
    {
      "constant": true,
      "inputs": [],
      "name": "tokenPrice",
      "outputs": [
        {
          "internalType": "uint256",
          "name": "",
          "type": "uint256"
        }
      ],
      "payable": false,
      "stateMutability": "view",
      "type": "function"
    },
    {
      "constant": true,
      "inputs": [],
      "name": "tokenSold",
      "outputs": [
        {
          "internalType": "uint256",
          "name": "",
          "type": "uint256"
        }
      ],
      "payable": false,
      "stateMutability": "view",
      "type": "function"
    },
    {
      "constant": false,
      "inputs": [
        {
          "internalType": "uint256",
          "name": "_numberOfTokens",
          "type": "uint256"
        }
      ],
      "name": "buyToken",
      "outputs": [],
      "payable": true,
      "stateMutability": "payable",
      "type": "function"
    }
  ],
  "bytecode": "0x608060405234801561001057600080fd5b5060405161031d38038061031d8339818101604052604081101561003357600080fd5b810190808051906020019092919080519060200190929190505050336000806101000a81548173ffffffffffffffffffffffffffffffffffffffff021916908373ffffffffffffffffffffffffffffffffffffffff16021790555081600160006101000a81548173ffffffffffffffffffffffffffffffffffffffff021916908373ffffffffffffffffffffffffffffffffffffffff160217905550806002819055505050610236806100e76000396000f3fe60806040526004361061003f5760003560e01c80632d296bf114610044578063519ee19e1461007257806355a373d61461009d5780637ff9b596146100f4575b600080fd5b6100706004803603602081101561005a57600080fd5b810190808035906020019092919050505061011f565b005b34801561007e57600080fd5b506100876101a0565b6040518082815260200191505060405180910390f35b3480156100a957600080fd5b506100b26101a6565b604051808273ffffffffffffffffffffffffffffffffffffffff1673ffffffffffffffffffffffffffffffffffffffff16815260200191505060405180910390f35b34801561010057600080fd5b506101096101cc565b6040518082815260200191505060405180910390f35b610134600254826101d290919063ffffffff16565b341461013f57600080fd5b806003600082825401925050819055503373ffffffffffffffffffffffffffffffffffffffff167f5e5e995ce3133561afceaa51a9a154d5db228cd7525d34df5185582c18d3df09826040518082815260200191505060405180910390a250565b60035481565b600160009054906101000a900473ffffffffffffffffffffffffffffffffffffffff1681565b60025481565b600080828402905060008414806101f15750828482816101ee57fe5b04145b6101f757fe5b809150509291505056fea265627a7a7231582085a074109a748ac267fe273f4f089f0d66cc19624038946184ccb95047fa52ee64736f6c63430005100032",
  "source": "pragma solidity >= 0.5.0 < 0.7.0;\n\nimport \"./TrayToken.sol\";\nimport \"../installed_contracts/zeppelin/contracts/math/SafeMath.sol\";\n\ncontract CrowdSale {\n\n  using SafeMath for uint256;\n\n  // State variable list\n  address admin;\n  // variable to hold address of Token contract\n  TrayToken public tokenContract;\n  // Price of token in wei\n  uint256 public tokenPrice;\n  // Total tokens sold\n  uint256 public tokenSold; \n\n  event Sell(address indexed _buyer, uint256 _amount);\n\n\n  constructor(TrayToken _tokenContract, uint256 _tokenPrice) public {\n    // Address which deploy this contract will become admin\t  \n    admin = msg.sender;\n    tokenContract = _tokenContract;\n    tokenPrice = _tokenPrice;\n  }\n\n  function buyToken(uint256 _numberOfTokens) public payable {\n    // Check sent amount/value can able to buy given number of tokens\n    require(msg.value == _numberOfTokens.mul(tokenPrice));\n    // Check contract has enough tokens\n    // Check transfer of amount/value is successful\n\n    // Update total no of tokens sold\n    tokenSold += _numberOfTokens;\n    // Emit event since transfer is taking place\n    emit Sell(msg.sender, _numberOfTokens);\n\n  }\n}\n",
  "sourcePath": "/home/corn/Code/dapp/token_saleICO/contracts/CrowdSale.sol",
  "compiler": {
    "name": "solc",
    "version": "0.5.16+commit.9c3226ce.Emscripten.clang"
  },
  "schemaVersion": "3.0.23",
  "updatedAt": "2020-02-13T11:57:34.719Z",
  "networkType": "ethereum",
  "devdoc": {
    "methods": {}
  },
  "userdoc": {
    "methods": {}
  }
}