{
  "contractName": "CrowdSale",
  "abi": [
    {
      "inputs": [
        {
          "internalType": "contract TrayToken",
          "name": "_tokenContract",
          "type": "address"
        },
        {
          "internalType": "uint256",
          "name": "_tokenPrice",
          "type": "uint256"
        }
      ],
      "payable": false,
      "stateMutability": "nonpayable",
      "type": "constructor"
    },
    {
      "anonymous": false,
      "inputs": [
        {
          "indexed": true,
          "internalType": "address",
          "name": "_buyer",
          "type": "address"
        },
        {
          "indexed": false,
          "internalType": "uint256",
          "name": "_amount",
          "type": "uint256"
        }
      ],
      "name": "Sell",
      "type": "event"
    },
    {
      "constant": true,
      "inputs": [],
      "name": "tokenContract",
      "outputs": [
        {
          "internalType": "contract TrayToken",
          "name": "",
          "type": "address"
        }
      ],
      "payable": false,
      "stateMutability": "view",
      "type": "function"
    },
    {
      "constant": true,
      "inputs": [],
      "name": "tokenPrice",
      "outputs": [
        {
          "internalType": "uint256",
          "name": "",
          "type": "uint256"
        }
      ],
      "payable": false,
      "stateMutability": "view",
      "type": "function"
    },
    {
      "constant": true,
      "inputs": [],
      "name": "tokenSold",
      "outputs": [
        {
          "internalType": "uint256",
          "name": "",
          "type": "uint256"
        }
      ],
      "payable": false,
      "stateMutability": "view",
      "type": "function"
    },
    {
      "constant": false,
      "inputs": [
        {
          "internalType": "uint256",
          "name": "_numberOfTokens",
          "type": "uint256"
        }
      ],
      "name": "buyToken",
      "outputs": [],
      "payable": true,
      "stateMutability": "payable",
      "type": "function"
    },
    {
      "constant": false,
      "inputs": [],
      "name": "endSale",
      "outputs": [],
      "payable": false,
      "stateMutability": "nonpayable",
      "type": "function"
    }
  ],
  "bytecode": "0x608060405234801561001057600080fd5b5060405161078c38038061078c8339818101604052604081101561003357600080fd5b810190808051906020019092919080519060200190929190505050336000806101000a81548173ffffffffffffffffffffffffffffffffffffffff021916908373ffffffffffffffffffffffffffffffffffffffff16021790555081600160006101000a81548173ffffffffffffffffffffffffffffffffffffffff021916908373ffffffffffffffffffffffffffffffffffffffff1602179055508060028190555050506106a5806100e76000396000f3fe60806040526004361061004a5760003560e01c80632d296bf11461004f578063380d831b1461007d578063519ee19e1461009457806355a373d6146100bf5780637ff9b59614610116575b600080fd5b61007b6004803603602081101561006557600080fd5b8101908080359060200190929190505050610141565b005b34801561008957600080fd5b50610092610395565b005b3480156100a057600080fd5b506100a961060f565b6040518082815260200191505060405180910390f35b3480156100cb57600080fd5b506100d4610615565b604051808273ffffffffffffffffffffffffffffffffffffffff1673ffffffffffffffffffffffffffffffffffffffff16815260200191505060405180910390f35b34801561012257600080fd5b5061012b61063b565b6040518082815260200191505060405180910390f35b6101566002548261064190919063ffffffff16565b341461016157600080fd5b80600160009054906101000a900473ffffffffffffffffffffffffffffffffffffffff1673ffffffffffffffffffffffffffffffffffffffff166370a08231306040518263ffffffff1660e01b8152600401808273ffffffffffffffffffffffffffffffffffffffff1673ffffffffffffffffffffffffffffffffffffffff16815260200191505060206040518083038186803b15801561020157600080fd5b505afa158015610215573d6000803e3d6000fd5b505050506040513d602081101561022b57600080fd5b8101908080519060200190929190505050101561024757600080fd5b600160009054906101000a900473ffffffffffffffffffffffffffffffffffffffff1673ffffffffffffffffffffffffffffffffffffffff1663a9059cbb33836040518363ffffffff1660e01b8152600401808373ffffffffffffffffffffffffffffffffffffffff1673ffffffffffffffffffffffffffffffffffffffff16815260200182815260200192505050602060405180830381600087803b1580156102f057600080fd5b505af1158015610304573d6000803e3d6000fd5b505050506040513d602081101561031a57600080fd5b810190808051906020019092919050505061033457600080fd5b806003600082825401925050819055503373ffffffffffffffffffffffffffffffffffffffff167f5e5e995ce3133561afceaa51a9a154d5db228cd7525d34df5185582c18d3df09826040518082815260200191505060405180910390a250565b6000809054906101000a900473ffffffffffffffffffffffffffffffffffffffff1673ffffffffffffffffffffffffffffffffffffffff163373ffffffffffffffffffffffffffffffffffffffff16146103ee57600080fd5b600160009054906101000a900473ffffffffffffffffffffffffffffffffffffffff1673ffffffffffffffffffffffffffffffffffffffff1663a9059cbb6000809054906101000a900473ffffffffffffffffffffffffffffffffffffffff16600160009054906101000a900473ffffffffffffffffffffffffffffffffffffffff1673ffffffffffffffffffffffffffffffffffffffff166370a08231306040518263ffffffff1660e01b8152600401808273ffffffffffffffffffffffffffffffffffffffff1673ffffffffffffffffffffffffffffffffffffffff16815260200191505060206040518083038186803b1580156104ed57600080fd5b505afa158015610501573d6000803e3d6000fd5b505050506040513d602081101561051757600080fd5b81019080805190602001909291905050506040518363ffffffff1660e01b8152600401808373ffffffffffffffffffffffffffffffffffffffff1673ffffffffffffffffffffffffffffffffffffffff16815260200182815260200192505050602060405180830381600087803b15801561059157600080fd5b505af11580156105a5573d6000803e3d6000fd5b505050506040513d60208110156105bb57600080fd5b81019080805190602001909291905050506105d557600080fd5b6000809054906101000a900473ffffffffffffffffffffffffffffffffffffffff1673ffffffffffffffffffffffffffffffffffffffff16ff5b60035481565b600160009054906101000a900473ffffffffffffffffffffffffffffffffffffffff1681565b60025481565b6000808284029050600084148061066057508284828161065d57fe5b04145b61066657fe5b809150509291505056fea265627a7a72315820fefbfca71d1d244730cecb3ca8d51d544475a4a6bb9191f9c3ef7b5dea12ced564736f6c63430005100032",
  "source": "pragma solidity >= 0.5.0 < 0.7.0;\n\nimport \"./TrayToken.sol\";\nimport \"../installed_contracts/zeppelin/contracts/math/SafeMath.sol\";\n\ncontract CrowdSale {\n\n  using SafeMath for uint256;\n\n  // State variable list\n  address admin;\n  // variable to hold address of Token contract\n  TrayToken public tokenContract;\n  // Price of token in wei\n  uint256 public tokenPrice;\n  // Total tokens sold\n  uint256 public tokenSold; \n\n  event Sell(address indexed _buyer, uint256 _amount);\n\n\n  constructor(TrayToken _tokenContract, uint256 _tokenPrice) public {\n    // Address which deploy this contract will become admin\t  \n    admin = msg.sender;\n    tokenContract = _tokenContract;\n    tokenPrice = _tokenPrice;\n  }\n\n\n  function buyToken(uint256 _numberOfTokens) public payable {\n    // Check sent amount/value can able to buy given number of tokens\n    require(msg.value == _numberOfTokens.mul(tokenPrice));\n    \n    // Check contract has enough tokens\n    require(tokenContract.balanceOf(address(this)) >= _numberOfTokens);    \n\n    // Transfer of token to caller of crowdsale contract and check if  successful\n    require(tokenContract.transfer(msg.sender, _numberOfTokens));\n\n    // Update total no of tokens sold\n    tokenSold += _numberOfTokens;\n\n    // Emit event since transfer is taking place\n    emit Sell(msg.sender, _numberOfTokens);\n  }\n\n\n  function endSale() public {\n    // Require admin \n    require(msg.sender == admin);\n    \n    // Transfer remaining tokens from contract to admin wallet\n    require(tokenContract.transfer(admin, tokenContract.balanceOf(address(this) ) ) );\n    \n    // Destroy CrowdSale contract\n    // Conversion of 'address' type to 'payable address' type\n    // convertion of address to uint160 and back to address make it 'payable address' type\n    selfdestruct(address(uint160(admin)));\n  }\t  \n  \n}\n",
  "sourcePath": "/home/corn/Code/dapp/crowdsale_dapp/contracts/CrowdSale.sol",
  "compiler": {
    "name": "solc",
    "version": "0.5.16+commit.9c3226ce.Emscripten.clang"
  },
  "schemaVersion": "3.0.23",
  "updatedAt": "2020-02-15T05:36:59.981Z",
  "networkType": "ethereum",
  "devdoc": {
    "methods": {}
  },
  "userdoc": {
    "methods": {}
  }
}