{
  "contractName": "TrayToken",
  "abi": [
    {
      "inputs": [],
      "payable": false,
      "stateMutability": "nonpayable",
      "type": "constructor"
    },
    {
      "constant": true,
      "inputs": [],
      "name": "totalSupply",
      "outputs": [
        {
          "internalType": "uint256",
          "name": "",
          "type": "uint256"
        }
      ],
      "payable": false,
      "stateMutability": "view",
      "type": "function"
    }
  ],
  "bytecode": "0x6080604052348015600f57600080fd5b506103e86000819055506084806100276000396000f3fe6080604052348015600f57600080fd5b506004361060285760003560e01c806318160ddd14602d575b600080fd5b60336049565b6040518082815260200191505060405180910390f35b6000548156fea265627a7a723158203aadc12495c7641ff2c14789bdcc2d90efa703d58755eca2fb93b87ca7e1b51c64736f6c63430005100032",
  "source": "pragma solidity >= 0.5.0 < 0.7.0;\n\ncontract TrayToken {\n  \n  // Setting State Variables, accessable through out the contract\n  // we get getter function for free for public state variable\n  uint256 public totalSupply;\n\n\n  constructor() public {\n    // Total number of token\n    totalSupply = 1000;\n\n  }\n}\n",
  "sourcePath": "/home/corn/Code/dapp/token_saleICO/contracts/TrayToken.sol",
  "compiler": {
    "name": "solc",
    "version": "0.5.16+commit.9c3226ce.Emscripten.clang"
  },
  "schemaVersion": "3.0.23",
  "updatedAt": "2020-02-12T08:19:24.761Z",
  "networkType": "ethereum",
  "devdoc": {
    "methods": {}
  },
  "userdoc": {
    "methods": {}
  }
}